{
  "_format": "hh-sol-artifact-1",
  "contractName": "RatingAndReviewSystem",
  "sourceName": "contracts/Lock.sol",
  "abi": [
    {
      "anonymous": false,
      "inputs": [
        {
          "indexed": true,
          "internalType": "address",
          "name": "reviewer",
          "type": "address"
        },
        {
          "indexed": false,
          "internalType": "string",
          "name": "website",
          "type": "string"
        },
        {
          "indexed": false,
          "internalType": "uint256",
          "name": "rating",
          "type": "uint256"
        },
        {
          "indexed": false,
          "internalType": "string",
          "name": "reviewText",
          "type": "string"
        }
      ],
      "name": "ReviewAdded",
      "type": "event"
    },
    {
      "inputs": [
        {
          "internalType": "string",
          "name": "website",
          "type": "string"
        },
        {
          "internalType": "uint256",
          "name": "rating",
          "type": "uint256"
        },
        {
          "internalType": "string",
          "name": "reviewText",
          "type": "string"
        }
      ],
      "name": "addReview",
      "outputs": [],
      "stateMutability": "nonpayable",
      "type": "function"
    },
    {
      "inputs": [
        {
          "internalType": "string",
          "name": "website",
          "type": "string"
        }
      ],
      "name": "getAverageRating",
      "outputs": [
        {
          "internalType": "uint256",
          "name": "",
          "type": "uint256"
        }
      ],
      "stateMutability": "view",
      "type": "function"
    },
    {
      "inputs": [
        {
          "internalType": "string",
          "name": "website",
          "type": "string"
        }
      ],
      "name": "getReviewCount",
      "outputs": [
        {
          "internalType": "uint256",
          "name": "",
          "type": "uint256"
        }
      ],
      "stateMutability": "view",
      "type": "function"
    },
    {
      "inputs": [
        {
          "internalType": "string",
          "name": "website",
          "type": "string"
        }
      ],
      "name": "getReviews",
      "outputs": [
        {
          "internalType": "string[]",
          "name": "",
          "type": "string[]"
        }
      ],
      "stateMutability": "view",
      "type": "function"
    },
    {
      "inputs": [
        {
          "internalType": "string",
          "name": "",
          "type": "string"
        },
        {
          "internalType": "uint256",
          "name": "",
          "type": "uint256"
        }
      ],
      "name": "reviews",
      "outputs": [
        {
          "internalType": "address",
          "name": "reviewer",
          "type": "address"
        },
        {
          "internalType": "string",
          "name": "website",
          "type": "string"
        },
        {
          "internalType": "uint256",
          "name": "rating",
          "type": "uint256"
        },
        {
          "internalType": "string",
          "name": "reviewText",
          "type": "string"
        }
      ],
      "stateMutability": "view",
      "type": "function"
    }
  ],
  "bytecode": "0x608060405234801561001057600080fd5b506112d9806100206000396000f3fe608060405234801561001057600080fd5b50600436106100575760003560e01c80632978465d1461005c578063588f695d1461008c57806371f5e27c146100bc578063998863fd146100ef578063a65ef9f01461011f575b600080fd5b61007660048036038101906100719190610926565b61013b565b6040516100839190610ab0565b60405180910390f35b6100a660048036038101906100a19190610926565b61031f565b6040516100b39190610aeb565b60405180910390f35b6100d660048036038101906100d19190610b32565b610349565b6040516100e69493929190610c19565b60405180910390f35b61010960048036038101906101049190610926565b6104dc565b6040516101169190610aeb565b60405180910390f35b61013960048036038101906101349190610c6c565b610599565b005b60606000808360405161014e9190610d33565b9081526020016040518091039020805490509050600081036101c157600067ffffffffffffffff811115610185576101846107fb565b5b6040519080825280602002602001820160405280156101b857816020015b60608152602001906001900390816101a35790505b5091505061031a565b60008167ffffffffffffffff8111156101dd576101dc6107fb565b5b60405190808252806020026020018201604052801561021057816020015b60608152602001906001900390816101fb5790505b50905060005b828110156103135760008560405161022e9190610d33565b9081526020016040518091039020818154811061024e5761024d610d4a565b5b9060005260206000209060040201600301805461026a90610da8565b80601f016020809104026020016040519081016040528092919081815260200182805461029690610da8565b80156102e35780601f106102b8576101008083540402835291602001916102e3565b820191906000526020600020905b8154815290600101906020018083116102c657829003601f168201915b50505050508282815181106102fb576102fa610d4a565b5b60200260200101819052508080600101915050610216565b5080925050505b919050565b600080826040516103309190610d33565b9081526020016040518091039020805490509050919050565b600082805160208101820180518482526020830160208501208183528095505050505050818154811061037b57600080fd5b9060005260206000209060040201600091509150508060000160009054906101000a900473ffffffffffffffffffffffffffffffffffffffff16908060010180546103c590610da8565b80601f01602080910402602001604051908101604052809291908181526020018280546103f190610da8565b801561043e5780601f106104135761010080835404028352916020019161043e565b820191906000526020600020905b81548152906001019060200180831161042157829003601f168201915b50505050509080600201549080600301805461045990610da8565b80601f016020809104026020016040519081016040528092919081815260200182805461048590610da8565b80156104d25780601f106104a7576101008083540402835291602001916104d2565b820191906000526020600020905b8154815290600101906020018083116104b557829003601f168201915b5050505050905084565b60008060009050600080846040516104f49190610d33565b90815260200160405180910390208054905090506000810361051b57600092505050610594565b60005b81811015610582576000856040516105369190610d33565b9081526020016040518091039020818154811061055657610555610d4a565b5b906000526020600020906004020160020154836105739190610e08565b9250808060010191505061051e565b50808261058f9190610e6b565b925050505b919050565b60008351116105dd576040517f08c379a00000000000000000000000000000000000000000000000000000000081526004016105d490610ee8565b60405180910390fd5b600182101580156105ef575060058211155b61062e576040517f08c379a000000000000000000000000000000000000000000000000000000000815260040161062590610f54565b60405180910390fd5b6000815111610672576040517f08c379a000000000000000000000000000000000000000000000000000000000815260040161066990610fc0565b60405180910390fd5b600060405180608001604052803373ffffffffffffffffffffffffffffffffffffffff1681526020018581526020018481526020018381525090506000846040516106bd9190610d33565b908152602001604051809103902081908060018154018082558091505060019003906000526020600020906004020160009091909190915060008201518160000160006101000a81548173ffffffffffffffffffffffffffffffffffffffff021916908373ffffffffffffffffffffffffffffffffffffffff1602179055506020820151816001019081610751919061118c565b50604082015181600201556060820151816003019081610771919061118c565b5050503373ffffffffffffffffffffffffffffffffffffffff167f82f0e2efe7f4587f3ec5465a79ff488c077e7c26a747482f7684ee1c56cec20f8585856040516107be9392919061125e565b60405180910390a250505050565b6000604051905090565b600080fd5b600080fd5b600080fd5b600080fd5b6000601f19601f8301169050919050565b7f4e487b7100000000000000000000000000000000000000000000000000000000600052604160045260246000fd5b610833826107ea565b810181811067ffffffffffffffff82111715610852576108516107fb565b5b80604052505050565b60006108656107cc565b9050610871828261082a565b919050565b600067ffffffffffffffff821115610891576108906107fb565b5b61089a826107ea565b9050602081019050919050565b82818337600083830152505050565b60006108c96108c484610876565b61085b565b9050828152602081018484840111156108e5576108e46107e5565b5b6108f08482856108a7565b509392505050565b600082601f83011261090d5761090c6107e0565b5b813561091d8482602086016108b6565b91505092915050565b60006020828403121561093c5761093b6107d6565b5b600082013567ffffffffffffffff81111561095a576109596107db565b5b610966848285016108f8565b91505092915050565b600081519050919050565b600082825260208201905092915050565b6000819050602082019050919050565b600081519050919050565b600082825260208201905092915050565b60005b838110156109d55780820151818401526020810190506109ba565b60008484015250505050565b60006109ec8261099b565b6109f681856109a6565b9350610a068185602086016109b7565b610a0f816107ea565b840191505092915050565b6000610a2683836109e1565b905092915050565b6000602082019050919050565b6000610a468261096f565b610a50818561097a565b935083602082028501610a628561098b565b8060005b85811015610a9e5784840389528151610a7f8582610a1a565b9450610a8a83610a2e565b925060208a01995050600181019050610a66565b50829750879550505050505092915050565b60006020820190508181036000830152610aca8184610a3b565b905092915050565b6000819050919050565b610ae581610ad2565b82525050565b6000602082019050610b006000830184610adc565b92915050565b610b0f81610ad2565b8114610b1a57600080fd5b50565b600081359050610b2c81610b06565b92915050565b60008060408385031215610b4957610b486107d6565b5b600083013567ffffffffffffffff811115610b6757610b666107db565b5b610b73858286016108f8565b9250506020610b8485828601610b1d565b9150509250929050565b600073ffffffffffffffffffffffffffffffffffffffff82169050919050565b6000610bb982610b8e565b9050919050565b610bc981610bae565b82525050565b600082825260208201905092915050565b6000610beb8261099b565b610bf58185610bcf565b9350610c058185602086016109b7565b610c0e816107ea565b840191505092915050565b6000608082019050610c2e6000830187610bc0565b8181036020830152610c408186610be0565b9050610c4f6040830185610adc565b8181036060830152610c618184610be0565b905095945050505050565b600080600060608486031215610c8557610c846107d6565b5b600084013567ffffffffffffffff811115610ca357610ca26107db565b5b610caf868287016108f8565b9350506020610cc086828701610b1d565b925050604084013567ffffffffffffffff811115610ce157610ce06107db565b5b610ced868287016108f8565b9150509250925092565b600081905092915050565b6000610d0d8261099b565b610d178185610cf7565b9350610d278185602086016109b7565b80840191505092915050565b6000610d3f8284610d02565b915081905092915050565b7f4e487b7100000000000000000000000000000000000000000000000000000000600052603260045260246000fd5b7f4e487b7100000000000000000000000000000000000000000000000000000000600052602260045260246000fd5b60006002820490506001821680610dc057607f821691505b602082108103610dd357610dd2610d79565b5b50919050565b7f4e487b7100000000000000000000000000000000000000000000000000000000600052601160045260246000fd5b6000610e1382610ad2565b9150610e1e83610ad2565b9250828201905080821115610e3657610e35610dd9565b5b92915050565b7f4e487b7100000000000000000000000000000000000000000000000000000000600052601260045260246000fd5b6000610e7682610ad2565b9150610e8183610ad2565b925082610e9157610e90610e3c565b5b828204905092915050565b7f576562736974652063616e6e6f7420626520656d707479000000000000000000600082015250565b6000610ed2601783610bcf565b9150610edd82610e9c565b602082019050919050565b60006020820190508181036000830152610f0181610ec5565b9050919050565b7f496e76616c696420726174696e67000000000000000000000000000000000000600082015250565b6000610f3e600e83610bcf565b9150610f4982610f08565b602082019050919050565b60006020820190508181036000830152610f6d81610f31565b9050919050565b7f52657669657720746578742063616e6e6f7420626520656d7074790000000000600082015250565b6000610faa601b83610bcf565b9150610fb582610f74565b602082019050919050565b60006020820190508181036000830152610fd981610f9d565b9050919050565b60008190508160005260206000209050919050565b60006020601f8301049050919050565b600082821b905092915050565b6000600883026110427fffffffffffffffffffffffffffffffffffffffffffffffffffffffffffffffff82611005565b61104c8683611005565b95508019841693508086168417925050509392505050565b6000819050919050565b600061108961108461107f84610ad2565b611064565b610ad2565b9050919050565b6000819050919050565b6110a38361106e565b6110b76110af82611090565b848454611012565b825550505050565b600090565b6110cc6110bf565b6110d781848461109a565b505050565b5b818110156110fb576110f06000826110c4565b6001810190506110dd565b5050565b601f8211156111405761111181610fe0565b61111a84610ff5565b81016020851015611129578190505b61113d61113585610ff5565b8301826110dc565b50505b505050565b600082821c905092915050565b600061116360001984600802611145565b1980831691505092915050565b600061117c8383611152565b9150826002028217905092915050565b6111958261099b565b67ffffffffffffffff8111156111ae576111ad6107fb565b5b6111b88254610da8565b6111c38282856110ff565b600060209050601f8311600181146111f657600084156111e4578287015190505b6111ee8582611170565b865550611256565b601f19841661120486610fe0565b60005b8281101561122c57848901518255600182019150602085019450602081019050611207565b868310156112495784890151611245601f891682611152565b8355505b6001600288020188555050505b505050505050565b600060608201905081810360008301526112788186610be0565b90506112876020830185610adc565b81810360408301526112998184610be0565b905094935050505056fea2646970667358221220c5cd3c48391284b9538ddcd368f7f2a2e052c0ad616af5cfc34dd652d508c9f564736f6c63430008180033",
  "linkReferences": {},
  "deployedLinkReferences": {}
}